{
  "contractName": "PriceFeed",
  "abi": [
    {
      "constant": false,
      "inputs": [
        {
          "name": "owner_",
          "type": "address"
        }
      ],
      "name": "setOwner",
      "outputs": [],
      "payable": false,
      "stateMutability": "nonpayable",
      "type": "function"
    },
    {
      "constant": false,
      "inputs": [
        {
          "name": "authority_",
          "type": "address"
        }
      ],
      "name": "setAuthority",
      "outputs": [],
      "payable": false,
      "stateMutability": "nonpayable",
      "type": "function"
    },
    {
      "constant": true,
      "inputs": [],
      "name": "owner",
      "outputs": [
        {
          "name": "",
          "type": "address"
        }
      ],
      "payable": false,
      "stateMutability": "view",
      "type": "function"
    },
    {
      "constant": true,
      "inputs": [],
      "name": "zzz",
      "outputs": [
        {
          "name": "",
          "type": "uint32"
        }
      ],
      "payable": false,
      "stateMutability": "view",
      "type": "function"
    },
    {
      "constant": true,
      "inputs": [],
      "name": "authority",
      "outputs": [
        {
          "name": "",
          "type": "address"
        }
      ],
      "payable": false,
      "stateMutability": "view",
      "type": "function"
    },
    {
      "anonymous": true,
      "inputs": [
        {
          "indexed": true,
          "name": "sig",
          "type": "bytes4"
        },
        {
          "indexed": true,
          "name": "guy",
          "type": "address"
        },
        {
          "indexed": true,
          "name": "foo",
          "type": "bytes32"
        },
        {
          "indexed": true,
          "name": "bar",
          "type": "bytes32"
        },
        {
          "indexed": false,
          "name": "wad",
          "type": "uint256"
        },
        {
          "indexed": false,
          "name": "fax",
          "type": "bytes"
        }
      ],
      "name": "LogNote",
      "type": "event"
    },
    {
      "anonymous": false,
      "inputs": [
        {
          "indexed": true,
          "name": "authority",
          "type": "address"
        }
      ],
      "name": "LogSetAuthority",
      "type": "event"
    },
    {
      "anonymous": false,
      "inputs": [
        {
          "indexed": true,
          "name": "owner",
          "type": "address"
        }
      ],
      "name": "LogSetOwner",
      "type": "event"
    },
    {
      "constant": true,
      "inputs": [],
      "name": "peek",
      "outputs": [
        {
          "name": "",
          "type": "bytes32"
        },
        {
          "name": "",
          "type": "bool"
        }
      ],
      "payable": false,
      "stateMutability": "view",
      "type": "function"
    },
    {
      "constant": true,
      "inputs": [],
      "name": "read",
      "outputs": [
        {
          "name": "",
          "type": "bytes32"
        }
      ],
      "payable": false,
      "stateMutability": "view",
      "type": "function"
    },
    {
      "constant": false,
      "inputs": [
        {
          "name": "val_",
          "type": "uint128"
        },
        {
          "name": "zzz_",
          "type": "uint32"
        }
      ],
      "name": "poke",
      "outputs": [],
      "payable": false,
      "stateMutability": "nonpayable",
      "type": "function"
    },
    {
      "constant": false,
      "inputs": [
        {
          "name": "val_",
          "type": "uint128"
        },
        {
          "name": "zzz_",
          "type": "uint32"
        },
        {
          "name": "med_",
          "type": "address"
        }
      ],
      "name": "post",
      "outputs": [],
      "payable": false,
      "stateMutability": "nonpayable",
      "type": "function"
    },
    {
      "constant": false,
      "inputs": [],
      "name": "void",
      "outputs": [],
      "payable": false,
      "stateMutability": "nonpayable",
      "type": "function"
    }
  ],
  "bytecode": "0x6080604081905260018054600160a060020a03191633908117909155907fce241d7ca1f669fee44b6fc00b8eba2df3bb514eed0f6f668f8f89096e81ed9490600090a26106d8806100516000396000f30060806040526004361061008a5763ffffffff60e060020a60003504166313af4035811461008f57806350ed2a2c146100b257806357de26a4146100dc57806359e02dd7146101035780635a686699146101315780637a9e5e4b146101675780638da5cb5b14610188578063a4dff0a2146101b9578063ac4c25b2146101e7578063bf7e214f146101fc575b600080fd5b34801561009b57600080fd5b506100b0600160a060020a0360043516610211565b005b3480156100be57600080fd5b506100b06001608060020a036004351663ffffffff60243516610282565b3480156100e857600080fd5b506100f1610338565b60408051918252519081900360200190f35b34801561010f57600080fd5b50610118610366565b6040805192835290151560208301528051918290030190f35b34801561013d57600080fd5b506100b06001608060020a036004351663ffffffff60243516600160a060020a0360443516610387565b34801561017357600080fd5b506100b0600160a060020a0360043516610492565b34801561019457600080fd5b5061019d6104ff565b60408051600160a060020a039092168252519081900360200190f35b3480156101c557600080fd5b506101ce61050e565b6040805163ffffffff9092168252519081900360200190f35b3480156101f357600080fd5b506100b0610521565b34801561020857600080fd5b5061019d6105aa565b61022733600035600160e060020a0319166105b9565b151561023257600080fd5b60018054600160a060020a031916600160a060020a0383811691909117918290556040519116907fce241d7ca1f669fee44b6fc00b8eba2df3bb514eed0f6f668f8f89096e81ed9490600090a250565b60408051348082526020820183815236938301849052600435936024359384938693339360008035600160e060020a031916949092606082018484808284376040519201829003965090945050505050a46102e933600035600160e060020a0319166105b9565b15156102f457600080fd5b50506002805463ffffffff909216608060020a02608060020a63ffffffff02196001608060020a039094166001608060020a03199093169290921792909216179055565b600254600090608060020a900463ffffffff16421061035657600080fd5b506002546001608060020a031690565b6002546001608060020a03811691608060020a90910463ffffffff16421090565b60408051348082526020820183815236938301849052600435936024359384938693339360008035600160e060020a031916949092606082018484808284376040519201829003965090945050505050a46103ee33600035600160e060020a0319166105b9565b15156103f957600080fd5b600280546001608060020a0319166001608060020a03871617608060020a63ffffffff021916608060020a63ffffffff8716021790556040805160e360020a630302f06b0281529051600160a060020a03851691631817835891600480830192600092919082900301818387803b15801561047357600080fd5b505af1158015610487573d6000803e3d6000fd5b505050505050505050565b6104a833600035600160e060020a0319166105b9565b15156104b357600080fd5b60008054600160a060020a031916600160a060020a03838116919091178083556040519116917f1abebea81bfa2637f28358c371278fb15ede7ea8dd28d2e03b112ff6d936ada491a250565b600154600160a060020a031681565b600254608060020a900463ffffffff1681565b60408051348082526020820183815236938301849052600435936024359384938693339360008035600160e060020a031916949092606082018484808284376040519201829003965090945050505050a461058833600035600160e060020a0319166105b9565b151561059357600080fd5b505060028054608060020a63ffffffff0219169055565b600054600160a060020a031681565b6000600160a060020a0383163014156105d4575060016106a6565b600154600160a060020a03848116911614156105f2575060016106a6565b600054600160a060020a0316151561060c575060006106a6565b600080546040805160e060020a63b7009613028152600160a060020a038781166004830152306024830152600160e060020a0319871660448301529151919092169263b700961392606480820193602093909283900390910190829087803b15801561067757600080fd5b505af115801561068b573d6000803e3d6000fd5b505050506040513d60208110156106a157600080fd5b505190505b929150505600a165627a7a72305820673459fae84973f1d7f76c38aee051c7d8cc7770c6f1cac4ee520704b19829090029",
  "source": "/// price-feed.sol - ds-value like that also pokes a medianizer\n\n// Copyright (C) 2017, 2018  DappHub, LLC\n\n// This program is free software: you can redistribute it and/or modify\n// it under the terms of the GNU General Public License as published by\n// the Free Software Foundation, either version 3 of the License, or\n// (at your option) any later version.\n\n// This program is distributed in the hope that it will be useful,\n// but WITHOUT ANY WARRANTY; without even the implied warranty of\n// MERCHANTABILITY or FITNESS FOR A PARTICULAR PURPOSE.  See the\n// GNU General Public License for more details.\n\n// You should have received a copy of the GNU General Public License\n// along with this program.  If not, see <http://www.gnu.org/licenses/>.\n\npragma solidity ^0.4.23;\n\nimport \"../lib/thing.sol\";\n\ninterface Medianizer {\n    function poke() external;\n}\n\ncontract PriceFeed is DSThing {\n\n    uint128       val;\n    uint32 public zzz;\n\n    function peek() external view returns (bytes32,bool)\n    {\n        return (bytes32(val), now < zzz);\n    }\n\n    function read() external view returns (bytes32)\n    {\n        require(now < zzz);\n        return bytes32(val);\n    }\n\n    function poke(uint128 val_, uint32 zzz_) external note auth\n    {\n        val = val_;\n        zzz = zzz_;\n    }\n\n    function post(uint128 val_, uint32 zzz_, Medianizer med_) external note auth\n    {\n        val = val_;\n        zzz = zzz_;\n        med_.poke();\n    }\n\n    function void() external note auth\n    {\n        zzz = 0;\n    }\n\n}\n",
  "sourcePath": "/home/martin/Proyectos/Moc_Deployments/contracts/repositories/mainnet_moc_v118_2/oracle/contracts/price-feed/price-feed.sol",
  "compiler": {
    "name": "solc",
    "version": "0.4.24+commit.e67f0147.Emscripten.clang"
  },
  "schemaVersion": "3.0.10",
  "updatedAt": "2019-10-05T01:13:28.433Z",
  "devdoc": {
    "methods": {}
  },
  "userdoc": {
    "methods": {}
  }
}