{
  "contractName": "MoCMedianizer",
  "abi": [
    {
      "constant": false,
      "inputs": [
        {
          "name": "owner_",
          "type": "address"
        }
      ],
      "name": "setOwner",
      "outputs": [],
      "payable": false,
      "stateMutability": "nonpayable",
      "type": "function"
    },
    {
      "constant": false,
      "inputs": [],
      "name": "poke",
      "outputs": [],
      "payable": false,
      "stateMutability": "nonpayable",
      "type": "function"
    },
    {
      "constant": true,
      "inputs": [],
      "name": "compute",
      "outputs": [
        {
          "name": "",
          "type": "bytes32"
        },
        {
          "name": "",
          "type": "bool"
        }
      ],
      "payable": false,
      "stateMutability": "view",
      "type": "function"
    },
    {
      "constant": false,
      "inputs": [
        {
          "name": "wat",
          "type": "address"
        }
      ],
      "name": "set",
      "outputs": [],
      "payable": false,
      "stateMutability": "nonpayable",
      "type": "function"
    },
    {
      "constant": false,
      "inputs": [
        {
          "name": "wat",
          "type": "address"
        }
      ],
      "name": "unset",
      "outputs": [],
      "payable": false,
      "stateMutability": "nonpayable",
      "type": "function"
    },
    {
      "constant": true,
      "inputs": [
        {
          "name": "",
          "type": "address"
        }
      ],
      "name": "indexes",
      "outputs": [
        {
          "name": "",
          "type": "bytes12"
        }
      ],
      "payable": false,
      "stateMutability": "view",
      "type": "function"
    },
    {
      "constant": true,
      "inputs": [],
      "name": "next",
      "outputs": [
        {
          "name": "",
          "type": "bytes12"
        }
      ],
      "payable": false,
      "stateMutability": "view",
      "type": "function"
    },
    {
      "constant": true,
      "inputs": [],
      "name": "read",
      "outputs": [
        {
          "name": "",
          "type": "bytes32"
        }
      ],
      "payable": false,
      "stateMutability": "view",
      "type": "function"
    },
    {
      "constant": true,
      "inputs": [],
      "name": "peek",
      "outputs": [
        {
          "name": "",
          "type": "bytes32"
        },
        {
          "name": "",
          "type": "bool"
        }
      ],
      "payable": false,
      "stateMutability": "view",
      "type": "function"
    },
    {
      "constant": true,
      "inputs": [
        {
          "name": "",
          "type": "bytes12"
        }
      ],
      "name": "values",
      "outputs": [
        {
          "name": "",
          "type": "address"
        }
      ],
      "payable": false,
      "stateMutability": "view",
      "type": "function"
    },
    {
      "constant": false,
      "inputs": [
        {
          "name": "min_",
          "type": "uint96"
        }
      ],
      "name": "setMin",
      "outputs": [],
      "payable": false,
      "stateMutability": "nonpayable",
      "type": "function"
    },
    {
      "constant": false,
      "inputs": [
        {
          "name": "authority_",
          "type": "address"
        }
      ],
      "name": "setAuthority",
      "outputs": [],
      "payable": false,
      "stateMutability": "nonpayable",
      "type": "function"
    },
    {
      "constant": true,
      "inputs": [],
      "name": "owner",
      "outputs": [
        {
          "name": "",
          "type": "address"
        }
      ],
      "payable": false,
      "stateMutability": "view",
      "type": "function"
    },
    {
      "constant": false,
      "inputs": [],
      "name": "void",
      "outputs": [],
      "payable": false,
      "stateMutability": "nonpayable",
      "type": "function"
    },
    {
      "constant": true,
      "inputs": [],
      "name": "has",
      "outputs": [
        {
          "name": "",
          "type": "bool"
        }
      ],
      "payable": false,
      "stateMutability": "view",
      "type": "function"
    },
    {
      "constant": false,
      "inputs": [
        {
          "name": "pos",
          "type": "bytes12"
        },
        {
          "name": "wat",
          "type": "address"
        }
      ],
      "name": "set",
      "outputs": [],
      "payable": false,
      "stateMutability": "nonpayable",
      "type": "function"
    },
    {
      "constant": true,
      "inputs": [],
      "name": "authority",
      "outputs": [
        {
          "name": "",
          "type": "address"
        }
      ],
      "payable": false,
      "stateMutability": "view",
      "type": "function"
    },
    {
      "constant": false,
      "inputs": [
        {
          "name": "pos",
          "type": "bytes12"
        }
      ],
      "name": "unset",
      "outputs": [],
      "payable": false,
      "stateMutability": "nonpayable",
      "type": "function"
    },
    {
      "constant": false,
      "inputs": [
        {
          "name": "next_",
          "type": "bytes12"
        }
      ],
      "name": "setNext",
      "outputs": [],
      "payable": false,
      "stateMutability": "nonpayable",
      "type": "function"
    },
    {
      "constant": true,
      "inputs": [],
      "name": "min",
      "outputs": [
        {
          "name": "",
          "type": "uint96"
        }
      ],
      "payable": false,
      "stateMutability": "view",
      "type": "function"
    },
    {
      "inputs": [],
      "payable": false,
      "stateMutability": "nonpayable",
      "type": "constructor"
    },
    {
      "anonymous": false,
      "inputs": [
        {
          "indexed": false,
          "name": "val",
          "type": "bytes32"
        }
      ],
      "name": "LogValue",
      "type": "event"
    },
    {
      "anonymous": true,
      "inputs": [
        {
          "indexed": true,
          "name": "sig",
          "type": "bytes4"
        },
        {
          "indexed": true,
          "name": "guy",
          "type": "address"
        },
        {
          "indexed": true,
          "name": "foo",
          "type": "bytes32"
        },
        {
          "indexed": true,
          "name": "bar",
          "type": "bytes32"
        },
        {
          "indexed": false,
          "name": "wad",
          "type": "uint256"
        },
        {
          "indexed": false,
          "name": "fax",
          "type": "bytes"
        }
      ],
      "name": "LogNote",
      "type": "event"
    },
    {
      "anonymous": false,
      "inputs": [
        {
          "indexed": true,
          "name": "authority",
          "type": "address"
        }
      ],
      "name": "LogSetAuthority",
      "type": "event"
    },
    {
      "anonymous": false,
      "inputs": [
        {
          "indexed": true,
          "name": "owner",
          "type": "address"
        }
      ],
      "name": "LogSetOwner",
      "type": "event"
    }
  ],
  "bytecode": "0x608060405260058054606060020a60c060020a03196001606060020a0319909116600117166c0100000000000000000000000017905534801561004157600080fd5b5060018054600160a060020a031916339081179091556040517fce241d7ca1f669fee44b6fc00b8eba2df3bb514eed0f6f668f8f89096e81ed9490600090a261102e8061008f6000396000f3006080604052600436106100f85763ffffffff60e060020a60003504166313af403581146100fd57806318178358146101205780631a43c338146101355780632801617e146101635780632966d1b9146101845780632db78d93146101a55780634c8fe526146101e357806357de26a4146101f857806359e02dd71461021f578063651dd0de146102345780636ba5ef0d146102725780637a9e5e4b146102935780638da5cb5b146102b4578063ac4c25b2146102c9578063b689d5ac146102de578063beb38b4314610307578063bf7e214f14610335578063e0a1fdad1461034a578063f2c5925d1461036c578063f88979451461038e575b600080fd5b34801561010957600080fd5b5061011e600160a060020a03600435166103bf565b005b34801561012c57600080fd5b5061011e610430565b34801561014157600080fd5b5061014a6104ab565b6040805192835290151560208301528051918290030190f35b34801561016f57600080fd5b5061011e600160a060020a0360043516610863565b34801561019057600080fd5b5061011e600160a060020a036004351661094a565b3480156101b157600080fd5b506101c6600160a060020a03600435166109f6565b60408051600160a060020a03199092168252519081900360200190f35b3480156101ef57600080fd5b506101c6610a0e565b34801561020457600080fd5b5061020d610a1a565b60408051918252519081900360200190f35b34801561022b57600080fd5b5061014a610a45565b34801561024057600080fd5b50610256600160a060020a031960043516610a61565b60408051600160a060020a039092168252519081900360200190f35b34801561027e57600080fd5b5061011e6001606060020a0360043516610a7c565b34801561029f57600080fd5b5061011e600160a060020a0360043516610b31565b3480156102c057600080fd5b50610256610b9e565b3480156102d557600080fd5b5061011e610bad565b3480156102ea57600080fd5b506102f3610be0565b604080519115158252519081900360200190f35b34801561031357600080fd5b5061011e600160a060020a031960043516602435600160a060020a0316610bf0565b34801561034157600080fd5b50610256610d67565b34801561035657600080fd5b5061011e600160a060020a031960043516610d76565b34801561037857600080fd5b5061011e600160a060020a031960043516610de7565b34801561039a57600080fd5b506103a3610e8f565b604080516001606060020a039092168252519081900360200190f35b6103d533600035600160e060020a031916610ea5565b15156103e057600080fd5b60018054600160a060020a031916600160a060020a0383811691909117918290556040519116907fce241d7ca1f669fee44b6fc00b8eba2df3bb514eed0f6f668f8f89096e81ed9490600090a250565b60008061043b6104ab565b600280546001608060020a0319166001608060020a03841617608060020a60ff021916608060020a831515021790556040805183815290519294509092507f296ba4ca62c6c21c95e828080cb8aec7481b71390585605300a8a76f9e95b527916020918190039190910190a15050565b600080606060008060008060008060008060006001600560009054906101000a900460a060020a0260a060020a9004036001606060020a031660405190808252806020026020018201604052801561050d578160200160208202803883390190505b50995060009850600197505b60055460a060020a908102046001606060020a03908116908916101561074b57600160a060020a031960a060020a890216600090815260036020526040902054600160a060020a0316156107405760a060020a8802600160a060020a03191660009081526003602052604080822054815160e060020a6359e02dd70281528251600160a060020a03909216936359e02dd79360048084019491939192918390030190829087803b1580156105cc57600080fd5b505af11580156105e0573d6000803e3d6000fd5b505050506040513d60408110156105f657600080fd5b50805160209091015190975095508515610740576001606060020a038916158061064357508960018a036001606060020a031681518110151561063557fe5b602090810290910101518710155b1561066f57868a8a6001606060020a031681518110151561066057fe5b60209081029091010152610739565b600094505b89856001606060020a031681518110151561068b57fe5b6020908102909101015187106106a657600190940193610674565b8893505b846001606060020a0316846001606060020a031611156107165789600185036001606060020a03168151811015156106de57fe5b906020019060200201518a856001606060020a03168151811015156106ff57fe5b6020908102909101015260001993909301926106aa565b868a866001606060020a031681518110151561072e57fe5b602090810290910101525b6001909801975b600190970196610519565b6005546001606060020a03606060020a9091048116908a161015610780576002546001608060020a03169b5060009a50610855565b6001891615156108195789600160026001606060020a038c1604036001606060020a03168151811015156107b057fe5b6020908102909101015191508960026001606060020a038b16046001606060020a03168151811015156107df57fe5b6020908102909101015190506108126108046001608060020a03808516908416610f98565b671bc16d674ec80000610fa8565b925061084d565b8960026001606060020a036000198c0116046001606060020a031681518110151561084057fe5b9060200190602002015192505b8260019b509b505b505050505050505050509091565b600061087b33600035600160e060020a031916610ea5565b151561088657600080fd5b5060055460a060020a90810281900460010102600160a060020a0319811615156108af57600080fd5b6005546040805160e060020a63beb38b4302815260a060020a909202600160a060020a0319166004830152600160a060020a038416602483015251309163beb38b4391604480830192600092919082900301818387803b15801561091257600080fd5b505af1158015610926573d6000803e3d6000fd5b5050600580546001606060020a03191660a060020a90940493909317909255505050565b61096033600035600160e060020a031916610ea5565b151561096b57600080fd5b600160a060020a038116600090815260046020819052604080832054815160e060020a63beb38b4302815260a060020a909102600160a060020a031916928101929092526024820183905251309263beb38b43926044808201939182900301818387803b1580156109db57600080fd5b505af11580156109ef573d6000803e3d6000fd5b5050505050565b60046020526000908152604090205460a060020a0281565b60055460a060020a0281565b600254600090608060020a900460ff161515610a3557600080fd5b506002546001608060020a031690565b6002546001608060020a03811691608060020a90910460ff1690565b600360205260009081526040902054600160a060020a031681565b60408051348082526020820183815236938301849052600435936024359384938693339360008035600160e060020a031916949092606082018484808284376040519201829003965090945050505050a4610ae333600035600160e060020a031916610ea5565b1515610aee57600080fd5b6001606060020a0383161515610b0357600080fd5b5050600580546001606060020a03909216606060020a02606060020a60c060020a0319909216919091179055565b610b4733600035600160e060020a031916610ea5565b1515610b5257600080fd5b60008054600160a060020a031916600160a060020a03838116919091178083556040519116917f1abebea81bfa2637f28358c371278fb15ede7ea8dd28d2e03b112ff6d936ada491a250565b600154600160a060020a031681565b610bc333600035600160e060020a031916610ea5565b1515610bce57600080fd5b60028054608060020a60ff0219169055565b600254608060020a900460ff1681565b60408051348082526020820183815236938301849052600435936024359384938693339360008035600160e060020a031916949092606082018484808284376040519201829003965090945050505050a4610c5733600035600160e060020a031916610ea5565b1515610c6257600080fd5b600160a060020a031984161515610c7857600080fd5b600160a060020a0383161580610cb45750600160a060020a03831660009081526004602052604090205460a060020a02600160a060020a031916155b1515610cbf57600080fd5b600160a060020a03198416600090815260036020908152604080832054600160a060020a039081168452600490925290912080546001606060020a0319169055831615610d3557600160a060020a038316600090815260046020526040902080546001606060020a03191660a060020a86041790555b5050600160a060020a031991821660009081526003602052604090208054600160a060020a0390921691909216179055565b600054600160a060020a031681565b610d8c33600035600160e060020a031916610ea5565b1515610d9757600080fd5b6040805160e060020a63beb38b43028152600160a060020a0319831660048201526000602482018190529151309263beb38b43926044808201939182900301818387803b1580156109db57600080fd5b60408051348082526020820183815236938301849052600435936024359384938693339360008035600160e060020a031916949092606082018484808284376040519201829003965090945050505050a4610e4e33600035600160e060020a031916610ea5565b1515610e5957600080fd5b600160a060020a031983161515610e6f57600080fd5b5050600580546001606060020a03191660a060020a909204919091179055565b600554606060020a90046001606060020a031681565b6000600160a060020a038316301415610ec057506001610f92565b600154600160a060020a0384811691161415610ede57506001610f92565b600054600160a060020a03161515610ef857506000610f92565b600080546040805160e060020a63b7009613028152600160a060020a038781166004830152306024830152600160e060020a0319871660448301529151919092169263b700961392606480820193602093909283900390910190829087803b158015610f6357600080fd5b505af1158015610f77573d6000803e3d6000fd5b505050506040513d6020811015610f8d57600080fd5b505190505b92915050565b80820182811015610f9257600080fd5b600081610fc9610fc085670de0b6b3a7640000610fda565b60028504610f98565b811515610fd257fe5b049392505050565b6000811580610ff7575050808202828282811515610ff457fe5b04145b1515610f9257600080fd00a165627a7a723058206685ab47108d245ee0ae454481b78ee0484b76bfddab906890b1df207cc8d9ae0029",
  "source": "pragma solidity ^0.4.24;\n\nimport \"./medianizer/medianizer.sol\";\n\ncontract MoCMedianizer is Medianizer {\n  constructor() public Medianizer() {\n  }\n}",
  "sourcePath": "/home/martin/Proyectos/Contracts-Deployments/repositories/testnet_rdoc/oracle/contracts/MocMedianizer.sol",
  "compiler": {
    "name": "solc",
    "version": "0.4.24+commit.e67f0147.Emscripten.clang"
  },
  "schemaVersion": "3.0.10",
  "updatedAt": "2020-01-28T17:16:49.957Z",
  "devdoc": {
    "methods": {}
  },
  "userdoc": {
    "methods": {}
  }
}